{
  "contractName": "Bazaar",
  "abi": [
    {
      "constant": true,
      "inputs": [
        {
          "name": "",
          "type": "uint256"
        }
      ],
      "name": "allAdmins",
      "outputs": [
        {
          "name": "adminAddress",
          "type": "address"
        }
      ],
      "payable": false,
      "stateMutability": "view",
      "type": "function",
      "signature": "0x06a4dc68"
    },
    {
      "constant": true,
      "inputs": [
        {
          "name": "",
          "type": "uint256"
        }
      ],
      "name": "itemIdToUser",
      "outputs": [
        {
          "name": "",
          "type": "address"
        }
      ],
      "payable": false,
      "stateMutability": "view",
      "type": "function",
      "signature": "0x563ce86c"
    },
    {
      "constant": true,
      "inputs": [
        {
          "name": "",
          "type": "address"
        },
        {
          "name": "",
          "type": "uint256"
        }
      ],
      "name": "userItemsIds",
      "outputs": [
        {
          "name": "",
          "type": "uint256"
        }
      ],
      "payable": false,
      "stateMutability": "view",
      "type": "function",
      "signature": "0x96f380a4"
    },
    {
      "constant": true,
      "inputs": [
        {
          "name": "",
          "type": "uint256"
        }
      ],
      "name": "allUsers",
      "outputs": [
        {
          "name": "userAddress",
          "type": "address"
        }
      ],
      "payable": false,
      "stateMutability": "view",
      "type": "function",
      "signature": "0xa2bdedf4"
    },
    {
      "constant": true,
      "inputs": [
        {
          "name": "",
          "type": "uint256"
        }
      ],
      "name": "allItems",
      "outputs": [
        {
          "name": "id",
          "type": "uint256"
        },
        {
          "name": "nameOfProduct",
          "type": "string"
        },
        {
          "name": "value",
          "type": "uint256"
        },
        {
          "name": "condition",
          "type": "string"
        },
        {
          "name": "sku",
          "type": "string"
        },
        {
          "name": "category",
          "type": "string"
        },
        {
          "name": "description",
          "type": "string"
        }
      ],
      "payable": false,
      "stateMutability": "view",
      "type": "function",
      "signature": "0xff68fa6e"
    },
    {
      "inputs": [],
      "payable": false,
      "stateMutability": "nonpayable",
      "type": "constructor",
      "signature": "constructor"
    },
    {
      "anonymous": false,
      "inputs": [
        {
          "indexed": false,
          "name": "added_address",
          "type": "address"
        }
      ],
      "name": "AdminSuccess",
      "type": "event",
      "signature": "0x2dfcb7172ff1fe1434057bab7aa83982c0ee4d46528e6473f547d34da77cef56"
    },
    {
      "anonymous": false,
      "inputs": [
        {
          "indexed": false,
          "name": "added_address",
          "type": "address"
        }
      ],
      "name": "userSuccess",
      "type": "event",
      "signature": "0x68c35433e049723f7f644a23a81777fe2f39303f07840a5832a62b4233e48845"
    },
    {
      "anonymous": false,
      "inputs": [
        {
          "indexed": false,
          "name": "_address",
          "type": "address"
        },
        {
          "indexed": false,
          "name": "id",
          "type": "uint256"
        },
        {
          "indexed": false,
          "name": "nameOfProduct",
          "type": "string"
        },
        {
          "indexed": false,
          "name": "value",
          "type": "uint256"
        },
        {
          "indexed": false,
          "name": "condition",
          "type": "string"
        },
        {
          "indexed": false,
          "name": "sku",
          "type": "string"
        },
        {
          "indexed": false,
          "name": "category",
          "type": "string"
        },
        {
          "indexed": false,
          "name": "description",
          "type": "string"
        }
      ],
      "name": "createSuccess",
      "type": "event",
      "signature": "0x9afd34344802906bbe9f13359065fab3c0b328482bb07e93456b7b79e63cc3e3"
    },
    {
      "constant": false,
      "inputs": [
        {
          "name": "_newAdminAddress",
          "type": "address"
        }
      ],
      "name": "addAdmin",
      "outputs": [],
      "payable": false,
      "stateMutability": "nonpayable",
      "type": "function",
      "signature": "0x70480275"
    },
    {
      "constant": true,
      "inputs": [
        {
          "name": "_theAddress",
          "type": "address"
        }
      ],
      "name": "checkAdressRole",
      "outputs": [
        {
          "name": "",
          "type": "uint256"
        }
      ],
      "payable": false,
      "stateMutability": "view",
      "type": "function",
      "signature": "0x750bfb97"
    },
    {
      "constant": false,
      "inputs": [
        {
          "name": "_newUserAddress",
          "type": "address"
        }
      ],
      "name": "createUser",
      "outputs": [],
      "payable": false,
      "stateMutability": "nonpayable",
      "type": "function",
      "signature": "0xcdd87618"
    },
    {
      "constant": false,
      "inputs": [
        {
          "name": "_userAddress",
          "type": "address"
        },
        {
          "name": "_name",
          "type": "string"
        },
        {
          "name": "_value",
          "type": "uint256"
        },
        {
          "name": "_condition",
          "type": "string"
        },
        {
          "name": "_sku",
          "type": "string"
        },
        {
          "name": "_category",
          "type": "string"
        },
        {
          "name": "_description",
          "type": "string"
        }
      ],
      "name": "createItem",
      "outputs": [],
      "payable": false,
      "stateMutability": "nonpayable",
      "type": "function",
      "signature": "0x24366331"
    },
    {
      "constant": true,
      "inputs": [],
      "name": "getUserLength",
      "outputs": [
        {
          "name": "",
          "type": "uint256"
        }
      ],
      "payable": false,
      "stateMutability": "view",
      "type": "function",
      "signature": "0x7456fed6"
    },
    {
      "constant": true,
      "inputs": [],
      "name": "getItemsLength",
      "outputs": [
        {
          "name": "",
          "type": "uint256"
        }
      ],
      "payable": false,
      "stateMutability": "view",
      "type": "function",
      "signature": "0x194f4795"
    },
    {
      "constant": true,
      "inputs": [],
      "name": "getAllItemsLength",
      "outputs": [
        {
          "name": "",
          "type": "uint256"
        }
      ],
      "payable": false,
      "stateMutability": "view",
      "type": "function",
      "signature": "0xb6112726"
    },
    {
      "constant": true,
      "inputs": [
        {
          "name": "_userAddress",
          "type": "address"
        }
      ],
      "name": "getUserItems",
      "outputs": [
        {
          "name": "items",
          "type": "uint256[]"
        }
      ],
      "payable": false,
      "stateMutability": "view",
      "type": "function",
      "signature": "0xce6019b4"
    },
    {
      "constant": true,
      "inputs": [
        {
          "name": "_itemId",
          "type": "uint256"
        }
      ],
      "name": "getItemInfo",
      "outputs": [
        {
          "name": "id",
          "type": "uint256"
        },
        {
          "name": "nameOfItem",
          "type": "string"
        },
        {
          "name": "typeofItem",
          "type": "string"
        },
        {
          "name": "value",
          "type": "uint256"
        }
      ],
      "payable": false,
      "stateMutability": "view",
      "type": "function",
      "signature": "0xde7fe3e7"
    }
  ],
  "bytecode": "0x608060405233600260006101000a81548173ffffffffffffffffffffffffffffffffffffffff021916908373ffffffffffffffffffffffffffffffffffffffff1602179055503480156200005257600080fd5b5062000099600260009054906101000a900473ffffffffffffffffffffffffffffffffffffffff166001620001686401000000000262001fa1179091906401000000009004565b620000a36200037b565b602060405190810160405280600260009054906101000a900473ffffffffffffffffffffffffffffffffffffffff1673ffffffffffffffffffffffffffffffffffffffff16815250905060058190806001815401808255809150509060018203906000526020600020016000909192909190915060008201518160000160006101000a81548173ffffffffffffffffffffffffffffffffffffffff021916908373ffffffffffffffffffffffffffffffffffffffff16021790555050505050620003a5565b62000183828262000257640100000000026401000000009004565b151515620001f9576040517f08c379a000000000000000000000000000000000000000000000000000000000815260040180806020018281038252601f8152602001807f526f6c65733a206163636f756e7420616c72656164792068617320726f6c650081525060200191505060405180910390fd5b60018260000160008373ffffffffffffffffffffffffffffffffffffffff1673ffffffffffffffffffffffffffffffffffffffff16815260200190815260200160002060006101000a81548160ff0219169083151502179055505050565b60008073ffffffffffffffffffffffffffffffffffffffff168273ffffffffffffffffffffffffffffffffffffffff161415151562000324576040517f08c379a00000000000000000000000000000000000000000000000000000000081526004018080602001828103825260228152602001807f526f6c65733a206163636f756e7420697320746865207a65726f20616464726581526020017f737300000000000000000000000000000000000000000000000000000000000081525060400191505060405180910390fd5b8260000160008373ffffffffffffffffffffffffffffffffffffffff1673ffffffffffffffffffffffffffffffffffffffff16815260200190815260200160002060009054906101000a900460ff16905092915050565b602060405190810160405280600073ffffffffffffffffffffffffffffffffffffffff1681525090565b6121e180620003b56000396000f3fe6080604052600436106100d0576000357c0100000000000000000000000000000000000000000000000000000000900463ffffffff16806306a4dc68146100d5578063194f479514610150578063243663311461017b578063563ce86c146104c957806370480275146105445780637456fed614610595578063750bfb97146105c057806396f380a414610625578063a2bdedf414610694578063b61127261461070f578063cdd876181461073a578063ce6019b41461078b578063de7fe3e714610831578063ff68fa6e1461095f575b600080fd5b3480156100e157600080fd5b5061010e600480360360208110156100f857600080fd5b8101908080359060200190929190505050610bd1565b604051808273ffffffffffffffffffffffffffffffffffffffff1673ffffffffffffffffffffffffffffffffffffffff16815260200191505060405180910390f35b34801561015c57600080fd5b50610165610c1a565b6040518082815260200191505060405180910390f35b34801561018757600080fd5b506104c7600480360360e081101561019e57600080fd5b81019080803573ffffffffffffffffffffffffffffffffffffffff169060200190929190803590602001906401000000008111156101db57600080fd5b8201836020820111156101ed57600080fd5b8035906020019184600183028401116401000000008311171561020f57600080fd5b91908080601f016020809104026020016040519081016040528093929190818152602001838380828437600081840152601f19601f820116905080830192505050505050509192919290803590602001909291908035906020019064010000000081111561027c57600080fd5b82018360208201111561028e57600080fd5b803590602001918460018302840111640100000000831117156102b057600080fd5b91908080601f016020809104026020016040519081016040528093929190818152602001838380828437600081840152601f19601f8201169050808301925050505050505091929192908035906020019064010000000081111561031357600080fd5b82018360208201111561032557600080fd5b8035906020019184600183028401116401000000008311171561034757600080fd5b91908080601f016020809104026020016040519081016040528093929190818152602001838380828437600081840152601f19601f820116905080830192505050505050509192919290803590602001906401000000008111156103aa57600080fd5b8201836020820111156103bc57600080fd5b803590602001918460018302840111640100000000831117156103de57600080fd5b91908080601f016020809104026020016040519081016040528093929190818152602001838380828437600081840152601f19601f8201169050808301925050505050505091929192908035906020019064010000000081111561044157600080fd5b82018360208201111561045357600080fd5b8035906020019184600183028401116401000000008311171561047557600080fd5b91908080601f016020809104026020016040519081016040528093929190818152602001838380828437600081840152601f19601f820116905080830192505050505050509192919290505050610c27565b005b3480156104d557600080fd5b50610502600480360360208110156104ec57600080fd5b810190808035906020019092919050505061115d565b604051808273ffffffffffffffffffffffffffffffffffffffff1673ffffffffffffffffffffffffffffffffffffffff16815260200191505060405180910390f35b34801561055057600080fd5b506105936004803603602081101561056757600080fd5b81019080803573ffffffffffffffffffffffffffffffffffffffff169060200190929190505050611190565b005b3480156105a157600080fd5b506105aa611409565b6040518082815260200191505060405180910390f35b3480156105cc57600080fd5b5061060f600480360360208110156105e357600080fd5b81019080803573ffffffffffffffffffffffffffffffffffffffff169060200190929190505050611416565b6040518082815260200191505060405180910390f35b34801561063157600080fd5b5061067e6004803603604081101561064857600080fd5b81019080803573ffffffffffffffffffffffffffffffffffffffff169060200190929190803590602001909291905050506114a2565b6040518082815260200191505060405180910390f35b3480156106a057600080fd5b506106cd600480360360208110156106b757600080fd5b81019080803590602001909291905050506114d2565b604051808273ffffffffffffffffffffffffffffffffffffffff1673ffffffffffffffffffffffffffffffffffffffff16815260200191505060405180910390f35b34801561071b57600080fd5b5061072461151b565b6040518082815260200191505060405180910390f35b34801561074657600080fd5b506107896004803603602081101561075d57600080fd5b81019080803573ffffffffffffffffffffffffffffffffffffffff169060200190929190505050611528565b005b34801561079757600080fd5b506107da600480360360208110156107ae57600080fd5b81019080803573ffffffffffffffffffffffffffffffffffffffff1690602001909291905050506116fc565b6040518080602001828103825283818151815260200191508051906020019060200280838360005b8381101561081d578082015181840152602081019050610802565b505050509050019250505060405180910390f35b34801561083d57600080fd5b5061086a6004803603602081101561085457600080fd5b8101908080359060200190929190505050611793565b604051808581526020018060200180602001848152602001838103835286818151815260200191508051906020019080838360005b838110156108ba57808201518184015260208101905061089f565b50505050905090810190601f1680156108e75780820380516001836020036101000a031916815260200191505b50838103825285818151815260200191508051906020019080838360005b83811015610920578082015181840152602081019050610905565b50505050905090810190601f16801561094d5780820380516001836020036101000a031916815260200191505b50965050505050505060405180910390f35b34801561096b57600080fd5b506109986004803603602081101561098257600080fd5b8101908080359060200190929190505050611b35565b60405180888152602001806020018781526020018060200180602001806020018060200186810386528c818151815260200191508051906020019080838360005b838110156109f45780820151818401526020810190506109d9565b50505050905090810190601f168015610a215780820380516001836020036101000a031916815260200191505b5086810385528a818151815260200191508051906020019080838360005b83811015610a5a578082015181840152602081019050610a3f565b50505050905090810190601f168015610a875780820380516001836020036101000a031916815260200191505b50868103845289818151815260200191508051906020019080838360005b83811015610ac0578082015181840152602081019050610aa5565b50505050905090810190601f168015610aed5780820380516001836020036101000a031916815260200191505b50868103835288818151815260200191508051906020019080838360005b83811015610b26578082015181840152602081019050610b0b565b50505050905090810190601f168015610b535780820380516001836020036101000a031916815260200191505b50868103825287818151815260200191508051906020019080838360005b83811015610b8c578082015181840152602081019050610b71565b50505050905090810190601f168015610bb95780820380516001836020036101000a031916815260200191505b509c5050505050505050505050505060405180910390f35b600581815481101515610be057fe5b906000526020600020016000915090508060000160009054906101000a900473ffffffffffffffffffffffffffffffffffffffff16905081565b6000600380549050905090565b60011515610c3f336000611e7e90919063ffffffff16565b1515141515610cdc576040517f08c379a00000000000000000000000000000000000000000000000000000000081526004018080602001828103825260338152602001807f54686973206f7065726174696f6e2063616e206f6e6c792062652072756e206281526020017f792072656769737465726564207573657273200000000000000000000000000081525060400191505060405180910390fd5b610ce461207e565b60e06040519081016040528060038054905081526020018881526020018781526020018681526020018581526020018481526020018381525090507f9afd34344802906bbe9f13359065fab3c0b328482bb07e93456b7b79e63cc3e388600380549050898989898989604051808973ffffffffffffffffffffffffffffffffffffffff1673ffffffffffffffffffffffffffffffffffffffff168152602001888152602001806020018781526020018060200180602001806020018060200186810386528c818151815260200191508051906020019080838360005b83811015610ddb578082015181840152602081019050610dc0565b50505050905090810190601f168015610e085780820380516001836020036101000a031916815260200191505b5086810385528a818151815260200191508051906020019080838360005b83811015610e41578082015181840152602081019050610e26565b50505050905090810190601f168015610e6e5780820380516001836020036101000a031916815260200191505b50868103845289818151815260200191508051906020019080838360005b83811015610ea7578082015181840152602081019050610e8c565b50505050905090810190601f168015610ed45780820380516001836020036101000a031916815260200191505b50868103835288818151815260200191508051906020019080838360005b83811015610f0d578082015181840152602081019050610ef2565b50505050905090810190601f168015610f3a5780820380516001836020036101000a031916815260200191505b50868103825287818151815260200191508051906020019080838360005b83811015610f73578082015181840152602081019050610f58565b50505050905090810190601f168015610fa05780820380516001836020036101000a031916815260200191505b509d505050505050505050505050505060405180910390a18760076000600380549050815260200190815260200160002060006101000a81548173ffffffffffffffffffffffffffffffffffffffff021916908373ffffffffffffffffffffffffffffffffffffffff160217905550600660008973ffffffffffffffffffffffffffffffffffffffff1673ffffffffffffffffffffffffffffffffffffffff1681526020019081526020016000206003805490509080600181540180825580915050906001820390600052602060002001600090919290919091505550600381908060018154018082558091505090600182039060005260206000209060070201600090919290919091506000820151816000015560208201518160010190805190602001906110d19291906120bc565b506040820151816002015560608201518160030190805190602001906110f89291906120bc565b5060808201518160040190805190602001906111159291906120bc565b5060a08201518160050190805190602001906111329291906120bc565b5060c082015181600601908051906020019061114f9291906120bc565b505050505050505050505050565b60076020528060005260406000206000915054906101000a900473ffffffffffffffffffffffffffffffffffffffff1681565b600115156111a8336001611e7e90919063ffffffff16565b1515141515611245576040517f08c379a00000000000000000000000000000000000000000000000000000000081526004018080602001828103825260348152602001807f54686973206f7065726174696f6e2063616e206f6e6c792062652072756e206281526020017f7920726567697374657265642041646d696e732000000000000000000000000081525060400191505060405180910390fd5b611259816001611fa190919063ffffffff16565b61126161213c565b6020604051908101604052808373ffffffffffffffffffffffffffffffffffffffff168152509050611291612166565b6020604051908101604052808473ffffffffffffffffffffffffffffffffffffffff16815250905060058190806001815401808255809150509060018203906000526020600020016000909192909190915060008201518160000160006101000a81548173ffffffffffffffffffffffffffffffffffffffff021916908373ffffffffffffffffffffffffffffffffffffffff16021790555050505060048290806001815401808255809150509060018203906000526020600020016000909192909190915060008201518160000160006101000a81548173ffffffffffffffffffffffffffffffffffffffff021916908373ffffffffffffffffffffffffffffffffffffffff1602179055505050507f2dfcb7172ff1fe1434057bab7aa83982c0ee4d46528e6473f547d34da77cef5683604051808273ffffffffffffffffffffffffffffffffffffffff1673ffffffffffffffffffffffffffffffffffffffff16815260200191505060405180910390a1505050565b6000600480549050905090565b600061142c826001611e7e90919063ffffffff16565b1561143a576000905061149d565b61144e826000611e7e90919063ffffffff16565b1561145c576001905061149d565b611470826000611e7e90919063ffffffff16565b15801561148e575061148c826001611e7e90919063ffffffff16565b155b1561149c576002905061149d565b5b919050565b6006602052816000526040600020818154811015156114bd57fe5b90600052602060002001600091509150505481565b6004818154811015156114e157fe5b906000526020600020016000915090508060000160009054906101000a900473ffffffffffffffffffffffffffffffffffffffff16905081565b6000600380549050905090565b60011515611540336001611e7e90919063ffffffff16565b15151415156115dd576040517f08c379a00000000000000000000000000000000000000000000000000000000081526004018080602001828103825260348152602001807f54686973206f7065726174696f6e2063616e206f6e6c792062652072756e206281526020017f7920726567697374657265642041646d696e732000000000000000000000000081525060400191505060405180910390fd5b6115f1816000611fa190919063ffffffff16565b6115f961213c565b6020604051908101604052808373ffffffffffffffffffffffffffffffffffffffff16815250905060048190806001815401808255809150509060018203906000526020600020016000909192909190915060008201518160000160006101000a81548173ffffffffffffffffffffffffffffffffffffffff021916908373ffffffffffffffffffffffffffffffffffffffff1602179055505050507f68c35433e049723f7f644a23a81777fe2f39303f07840a5832a62b4233e4884582604051808273ffffffffffffffffffffffffffffffffffffffff1673ffffffffffffffffffffffffffffffffffffffff16815260200191505060405180910390a15050565b6060600660008373ffffffffffffffffffffffffffffffffffffffff1673ffffffffffffffffffffffffffffffffffffffff16815260200190815260200160002080548060200260200160405190810160405280929190818152602001828054801561178757602002820191906000526020600020905b815481526020019060010190808311611773575b50505050509050919050565b600060608060006117a261207e565b6003868154811015156117b157fe5b906000526020600020906007020160e0604051908101604052908160008201548152602001600182018054600181600116156101000203166002900480601f01602080910402602001604051908101604052809291908181526020018280546001816001161561010002031660029004801561186e5780601f106118435761010080835404028352916020019161186e565b820191906000526020600020905b81548152906001019060200180831161185157829003601f168201915b5050505050815260200160028201548152602001600382018054600181600116156101000203166002900480601f01602080910402602001604051908101604052809291908181526020018280546001816001161561010002031660029004801561191a5780601f106118ef5761010080835404028352916020019161191a565b820191906000526020600020905b8154815290600101906020018083116118fd57829003601f168201915b50505050508152602001600482018054600181600116156101000203166002900480601f0160208091040260200160405190810160405280929190818152602001828054600181600116156101000203166002900480156119bc5780601f10611991576101008083540402835291602001916119bc565b820191906000526020600020905b81548152906001019060200180831161199f57829003601f168201915b50505050508152602001600582018054600181600116156101000203166002900480601f016020809104026020016040519081016040528092919081815260200182805460018160011615610100020316600290048015611a5e5780601f10611a3357610100808354040283529160200191611a5e565b820191906000526020600020905b815481529060010190602001808311611a4157829003601f168201915b50505050508152602001600682018054600181600116156101000203166002900480601f016020809104026020016040519081016040528092919081815260200182805460018160011615610100020316600290048015611b005780601f10611ad557610100808354040283529160200191611b00565b820191906000526020600020905b815481529060010190602001808311611ae357829003601f168201915b5050505050815250509050806000015181602001518260a0015183604001518292508191509450945094509450509193509193565b600381815481101515611b4457fe5b9060005260206000209060070201600091509050806000015490806001018054600181600116156101000203166002900480601f016020809104026020016040519081016040528092919081815260200182805460018160011615610100020316600290048015611bf65780601f10611bcb57610100808354040283529160200191611bf6565b820191906000526020600020905b815481529060010190602001808311611bd957829003601f168201915b505050505090806002015490806003018054600181600116156101000203166002900480601f016020809104026020016040519081016040528092919081815260200182805460018160011615610100020316600290048015611c9a5780601f10611c6f57610100808354040283529160200191611c9a565b820191906000526020600020905b815481529060010190602001808311611c7d57829003601f168201915b505050505090806004018054600181600116156101000203166002900480601f016020809104026020016040519081016040528092919081815260200182805460018160011615610100020316600290048015611d385780601f10611d0d57610100808354040283529160200191611d38565b820191906000526020600020905b815481529060010190602001808311611d1b57829003601f168201915b505050505090806005018054600181600116156101000203166002900480601f016020809104026020016040519081016040528092919081815260200182805460018160011615610100020316600290048015611dd65780601f10611dab57610100808354040283529160200191611dd6565b820191906000526020600020905b815481529060010190602001808311611db957829003601f168201915b505050505090806006018054600181600116156101000203166002900480601f016020809104026020016040519081016040528092919081815260200182805460018160011615610100020316600290048015611e745780601f10611e4957610100808354040283529160200191611e74565b820191906000526020600020905b815481529060010190602001808311611e5757829003601f168201915b5050505050905087565b60008073ffffffffffffffffffffffffffffffffffffffff168273ffffffffffffffffffffffffffffffffffffffff1614151515611f4a576040517f08c379a00000000000000000000000000000000000000000000000000000000081526004018080602001828103825260228152602001807f526f6c65733a206163636f756e7420697320746865207a65726f20616464726581526020017f737300000000000000000000000000000000000000000000000000000000000081525060400191505060405180910390fd5b8260000160008373ffffffffffffffffffffffffffffffffffffffff1673ffffffffffffffffffffffffffffffffffffffff16815260200190815260200160002060009054906101000a900460ff16905092915050565b611fab8282611e7e565b151515612020576040517f08c379a000000000000000000000000000000000000000000000000000000000815260040180806020018281038252601f8152602001807f526f6c65733a206163636f756e7420616c72656164792068617320726f6c650081525060200191505060405180910390fd5b60018260000160008373ffffffffffffffffffffffffffffffffffffffff1673ffffffffffffffffffffffffffffffffffffffff16815260200190815260200160002060006101000a81548160ff0219169083151502179055505050565b60e060405190810160405280600081526020016060815260200160008152602001606081526020016060815260200160608152602001606081525090565b828054600181600116156101000203166002900490600052602060002090601f016020900481019282601f106120fd57805160ff191683800117855561212b565b8280016001018555821561212b579182015b8281111561212a57825182559160200191906001019061210f565b5b5090506121389190612190565b5090565b602060405190810160405280600073ffffffffffffffffffffffffffffffffffffffff1681525090565b602060405190810160405280600073ffffffffffffffffffffffffffffffffffffffff1681525090565b6121b291905b808211156121ae576000816000905550600101612196565b5090565b9056fea165627a7a723058200b58ab39080e51762969b4aef841f9d4bf88faa9dd9845d33a6bf04ffbb3e5000029",
  "source": "pragma solidity ^0.5.0;\r\n\r\nimport \"./Roles.sol\";\r\n\r\n\r\ncontract Bazaar {\r\n\r\n    using Roles for Roles.Role;\r\n\r\n    Roles.Role  users;\r\n    Roles.Role  admins;\r\n\r\n    event AdminSuccess(\r\n        address added_address\r\n    );\r\n    event userSuccess(\r\n        address added_address\r\n    );\r\n    event createSuccess (\r\n        address _address,\r\n        uint id,\r\n        string nameOfProduct,\r\n        uint value,\r\n        string condition,\r\n        string sku,\r\n        string category,\r\n        string description\r\n    );\r\n\r\n    address owner = msg.sender;\r\n\r\n    constructor() public {\r\n        admins.add(owner);\r\n        Admin memory admin = Admin({\r\n            adminAddress : owner\r\n            });\r\n        allAdmins.push(admin);\r\n    }\r\n\r\n    modifier onlyUser() {\r\n        require(users.has(msg.sender) == true, 'This operation can only be run by registered users ');\r\n        _;\r\n    }\r\n\r\n    modifier onlyAdmin() {\r\n        require(admins.has(msg.sender) == true, 'This operation can only be run by registered Admins ');\r\n        _;\r\n    }\r\n\r\n    function addAdmin(address _newAdminAddress) public onlyAdmin {\r\n        admins.add(_newAdminAddress);\r\n        User memory user = User({\r\n            userAddress : _newAdminAddress\r\n            });\r\n        Admin memory admin = Admin({\r\n            adminAddress : _newAdminAddress\r\n            });\r\n        allAdmins.push(admin);\r\n        allUsers.push(user);\r\n\r\n        emit AdminSuccess(_newAdminAddress);\r\n    }\r\n\r\n    function checkAdressRole(address _theAddress) public view returns (uint){\r\n\r\n        if (admins.has(_theAddress)) {\r\n            return 0;\r\n        }\r\n\r\n        if (users.has(_theAddress)) {\r\n            return 1;\r\n        }\r\n\r\n        if (!users.has(_theAddress) && !admins.has(_theAddress)) {\r\n            return 2;\r\n        }\r\n    }\r\n\r\n    struct Item {\r\n        uint id;\r\n        string nameOfProduct;\r\n        uint value;\r\n        string condition;\r\n        string sku;\r\n        string category;\r\n        string description;\r\n    }\r\n    //\r\n    struct User {\r\n        address userAddress;\r\n    }\r\n\r\n    struct Admin {\r\n        address adminAddress;\r\n    }\r\n    //\r\n    Item[] public allItems;\r\n\r\n    User[] public allUsers;\r\n\r\n    Admin[] public allAdmins;\r\n\r\n    mapping(address => uint[]) public userItemsIds;\r\n    mapping(uint => address) public itemIdToUser;\r\n\r\n    function createUser(address _newUserAddress) public onlyAdmin {\r\n        users.add(_newUserAddress);\r\n        User memory user = User({\r\n            userAddress : _newUserAddress\r\n            });\r\n        allUsers.push(user);\r\n        emit userSuccess(_newUserAddress);\r\n    }\r\n\r\n    function createItem(address _userAddress, string memory _name, uint _value, string memory _condition, string memory _sku, string memory _category, string memory _description) public onlyUser {\r\n        Item memory item = Item({\r\n            id : allItems.length,\r\n            nameOfProduct : _name,\r\n            value : _value,\r\n            condition : _condition,\r\n            sku : _sku,\r\n            category : _category,\r\n            description : _description\r\n            });\r\n\r\n        emit createSuccess(_userAddress, allItems.length, _name, _value, _condition, _sku, _category, _description);\r\n        itemIdToUser[allItems.length] = _userAddress;\r\n        userItemsIds[_userAddress].push(allItems.length);\r\n        allItems.push(item);\r\n\r\n    }\r\n\r\n    function getUserLength() public view returns (uint) {\r\n        return allUsers.length;\r\n    }\r\n\r\n    function getItemsLength() view public returns (uint) {\r\n        return allItems.length;\r\n    }\r\n\r\n    function getAllItemsLength() view public returns (uint) {\r\n        return allItems.length;\r\n    }\r\n\r\n    function getUserItems(address _userAddress) public view returns (uint[] memory items){\r\n        return userItemsIds[_userAddress];\r\n    }\r\n\r\n    //This function returns all information about single item\r\n    function getItemInfo(uint _itemId) public view returns (uint id, string memory nameOfItem, string memory typeofItem, uint value) {\r\n        Item memory item = allItems[_itemId];\r\n        return (item.id, item.nameOfProduct, item.category, item.value);\r\n    }\r\n\r\n}",
  "sourcePath": "D:/eth_dapps/vue-truffle/contracts/Bazaar.sol",
  "compiler": {
    "name": "solc",
    "version": "0.5.0+commit.1d4f565a.Emscripten.clang"
  },
  "schemaVersion": "3.0.5",
  "updatedAt": "2019-06-25T12:24:47.958Z",
  "devdoc": {
    "methods": {}
  },
  "userdoc": {
    "methods": {}
  }
}