{
  "contractName": "Bazaar",
  "abi": [
    {
      "constant": true,
      "inputs": [
        {
          "name": "",
          "type": "uint256"
        }
      ],
      "name": "allAdmins",
      "outputs": [
        {
          "name": "adminAddress",
          "type": "address"
        }
      ],
      "payable": false,
      "stateMutability": "view",
      "type": "function",
      "signature": "0x06a4dc68"
    },
    {
      "constant": true,
      "inputs": [
        {
          "name": "",
          "type": "uint256"
        }
      ],
      "name": "itemIdToUser",
      "outputs": [
        {
          "name": "",
          "type": "address"
        }
      ],
      "payable": false,
      "stateMutability": "view",
      "type": "function",
      "signature": "0x563ce86c"
    },
    {
      "constant": true,
      "inputs": [
        {
          "name": "",
          "type": "address"
        },
        {
          "name": "",
          "type": "uint256"
        }
      ],
      "name": "userItemsIds",
      "outputs": [
        {
          "name": "",
          "type": "uint256"
        }
      ],
      "payable": false,
      "stateMutability": "view",
      "type": "function",
      "signature": "0x96f380a4"
    },
    {
      "constant": true,
      "inputs": [
        {
          "name": "",
          "type": "uint256"
        }
      ],
      "name": "allUsers",
      "outputs": [
        {
          "name": "userAddress",
          "type": "address"
        }
      ],
      "payable": false,
      "stateMutability": "view",
      "type": "function",
      "signature": "0xa2bdedf4"
    },
    {
      "constant": true,
      "inputs": [
        {
          "name": "",
          "type": "uint256"
        }
      ],
      "name": "allItems",
      "outputs": [
        {
          "name": "id",
          "type": "uint256"
        },
        {
          "name": "hash",
          "type": "string"
        },
        {
          "name": "nameOfProduct",
          "type": "string"
        },
        {
          "name": "value",
          "type": "uint256"
        },
        {
          "name": "condition",
          "type": "string"
        },
        {
          "name": "sku",
          "type": "string"
        },
        {
          "name": "category",
          "type": "string"
        },
        {
          "name": "description",
          "type": "string"
        }
      ],
      "payable": false,
      "stateMutability": "view",
      "type": "function",
      "signature": "0xff68fa6e"
    },
    {
      "inputs": [],
      "payable": false,
      "stateMutability": "nonpayable",
      "type": "constructor",
      "signature": "constructor"
    },
    {
      "anonymous": false,
      "inputs": [
        {
          "indexed": false,
          "name": "added_address",
          "type": "address"
        }
      ],
      "name": "AdminSuccess",
      "type": "event",
      "signature": "0x2dfcb7172ff1fe1434057bab7aa83982c0ee4d46528e6473f547d34da77cef56"
    },
    {
      "anonymous": false,
      "inputs": [
        {
          "indexed": false,
          "name": "added_address",
          "type": "address"
        }
      ],
      "name": "userSuccess",
      "type": "event",
      "signature": "0x68c35433e049723f7f644a23a81777fe2f39303f07840a5832a62b4233e48845"
    },
    {
      "anonymous": false,
      "inputs": [
        {
          "indexed": false,
          "name": "_address",
          "type": "address"
        },
        {
          "indexed": false,
          "name": "id",
          "type": "uint256"
        },
        {
          "indexed": false,
          "name": "nameOfProduct",
          "type": "string"
        },
        {
          "indexed": false,
          "name": "value",
          "type": "uint256"
        },
        {
          "indexed": false,
          "name": "condition",
          "type": "string"
        },
        {
          "indexed": false,
          "name": "sku",
          "type": "string"
        },
        {
          "indexed": false,
          "name": "category",
          "type": "string"
        },
        {
          "indexed": false,
          "name": "description",
          "type": "string"
        }
      ],
      "name": "createSuccess",
      "type": "event",
      "signature": "0x9afd34344802906bbe9f13359065fab3c0b328482bb07e93456b7b79e63cc3e3"
    },
    {
      "constant": false,
      "inputs": [
        {
          "name": "_newAdminAddress",
          "type": "address"
        }
      ],
      "name": "addAdmin",
      "outputs": [],
      "payable": false,
      "stateMutability": "nonpayable",
      "type": "function",
      "signature": "0x70480275"
    },
    {
      "constant": true,
      "inputs": [
        {
          "name": "_theAddress",
          "type": "address"
        }
      ],
      "name": "checkAdressRole",
      "outputs": [
        {
          "name": "",
          "type": "uint256"
        }
      ],
      "payable": false,
      "stateMutability": "view",
      "type": "function",
      "signature": "0x750bfb97"
    },
    {
      "constant": false,
      "inputs": [
        {
          "name": "_newUserAddress",
          "type": "address"
        }
      ],
      "name": "createUser",
      "outputs": [],
      "payable": false,
      "stateMutability": "nonpayable",
      "type": "function",
      "signature": "0xcdd87618"
    },
    {
      "constant": false,
      "inputs": [
        {
          "name": "_userAddress",
          "type": "address"
        },
        {
          "name": "_hash",
          "type": "string"
        },
        {
          "name": "_name",
          "type": "string"
        },
        {
          "name": "_value",
          "type": "uint256"
        },
        {
          "name": "_condition",
          "type": "string"
        },
        {
          "name": "_sku",
          "type": "string"
        },
        {
          "name": "_category",
          "type": "string"
        },
        {
          "name": "_description",
          "type": "string"
        }
      ],
      "name": "createItem",
      "outputs": [],
      "payable": false,
      "stateMutability": "nonpayable",
      "type": "function",
      "signature": "0x4b87289b"
    },
    {
      "constant": true,
      "inputs": [],
      "name": "getUserLength",
      "outputs": [
        {
          "name": "",
          "type": "uint256"
        }
      ],
      "payable": false,
      "stateMutability": "view",
      "type": "function",
      "signature": "0x7456fed6"
    },
    {
      "constant": true,
      "inputs": [],
      "name": "getItemsLength",
      "outputs": [
        {
          "name": "",
          "type": "uint256"
        }
      ],
      "payable": false,
      "stateMutability": "view",
      "type": "function",
      "signature": "0x194f4795"
    },
    {
      "constant": true,
      "inputs": [],
      "name": "getAllItemsLength",
      "outputs": [
        {
          "name": "",
          "type": "uint256"
        }
      ],
      "payable": false,
      "stateMutability": "view",
      "type": "function",
      "signature": "0xb6112726"
    },
    {
      "constant": true,
      "inputs": [
        {
          "name": "_userAddress",
          "type": "address"
        }
      ],
      "name": "getUserItems",
      "outputs": [
        {
          "name": "items",
          "type": "uint256[]"
        }
      ],
      "payable": false,
      "stateMutability": "view",
      "type": "function",
      "signature": "0xce6019b4"
    },
    {
      "constant": true,
      "inputs": [
        {
          "name": "_itemId",
          "type": "uint256"
        }
      ],
      "name": "getItemInfo",
      "outputs": [
        {
          "name": "id",
          "type": "uint256"
        },
        {
          "name": "hash",
          "type": "string"
        },
        {
          "name": "nameOfProduct",
          "type": "string"
        },
        {
          "name": "value",
          "type": "uint256"
        },
        {
          "name": "condition",
          "type": "string"
        },
        {
          "name": "sku",
          "type": "string"
        },
        {
          "name": "category",
          "type": "string"
        },
        {
          "name": "description",
          "type": "string"
        }
      ],
      "payable": false,
      "stateMutability": "view",
      "type": "function",
      "signature": "0xde7fe3e7"
    }
  ],
  "bytecode": "0x608060405233600260006101000a81548173ffffffffffffffffffffffffffffffffffffffff021916908373ffffffffffffffffffffffffffffffffffffffff1602179055503480156200005257600080fd5b5062000099600260009054906101000a900473ffffffffffffffffffffffffffffffffffffffff1660016200016864010000000002620023ed179091906401000000009004565b620000a36200037b565b602060405190810160405280600260009054906101000a900473ffffffffffffffffffffffffffffffffffffffff1673ffffffffffffffffffffffffffffffffffffffff16815250905060058190806001815401808255809150509060018203906000526020600020016000909192909190915060008201518160000160006101000a81548173ffffffffffffffffffffffffffffffffffffffff021916908373ffffffffffffffffffffffffffffffffffffffff16021790555050505050620003a5565b62000183828262000257640100000000026401000000009004565b151515620001f9576040517f08c379a000000000000000000000000000000000000000000000000000000000815260040180806020018281038252601f8152602001807f526f6c65733a206163636f756e7420616c72656164792068617320726f6c650081525060200191505060405180910390fd5b60018260000160008373ffffffffffffffffffffffffffffffffffffffff1673ffffffffffffffffffffffffffffffffffffffff16815260200190815260200160002060006101000a81548160ff0219169083151502179055505050565b60008073ffffffffffffffffffffffffffffffffffffffff168273ffffffffffffffffffffffffffffffffffffffff161415151562000324576040517f08c379a00000000000000000000000000000000000000000000000000000000081526004018080602001828103825260228152602001807f526f6c65733a206163636f756e7420697320746865207a65726f20616464726581526020017f737300000000000000000000000000000000000000000000000000000000000081525060400191505060405180910390fd5b8260000160008373ffffffffffffffffffffffffffffffffffffffff1673ffffffffffffffffffffffffffffffffffffffff16815260200190815260200160002060009054906101000a900460ff16905092915050565b602060405190810160405280600073ffffffffffffffffffffffffffffffffffffffff1681525090565b61263580620003b56000396000f3fe6080604052600436106100d0576000357c0100000000000000000000000000000000000000000000000000000000900463ffffffff16806306a4dc68146100d5578063194f4795146101505780634b87289b1461017b578063563ce86c1461056157806370480275146105dc5780637456fed61461062d578063750bfb971461065857806396f380a4146106bd578063a2bdedf41461072c578063b6112726146107a7578063cdd87618146107d2578063ce6019b414610823578063de7fe3e7146108c9578063ff68fa6e14610ba7575b600080fd5b3480156100e157600080fd5b5061010e600480360360208110156100f857600080fd5b8101908080359060200190929190505050610e85565b604051808273ffffffffffffffffffffffffffffffffffffffff1673ffffffffffffffffffffffffffffffffffffffff16815260200191505060405180910390f35b34801561015c57600080fd5b50610165610ece565b6040518082815260200191505060405180910390f35b34801561018757600080fd5b5061055f600480360361010081101561019f57600080fd5b81019080803573ffffffffffffffffffffffffffffffffffffffff169060200190929190803590602001906401000000008111156101dc57600080fd5b8201836020820111156101ee57600080fd5b8035906020019184600183028401116401000000008311171561021057600080fd5b91908080601f016020809104026020016040519081016040528093929190818152602001838380828437600081840152601f19601f8201169050808301925050505050505091929192908035906020019064010000000081111561027357600080fd5b82018360208201111561028557600080fd5b803590602001918460018302840111640100000000831117156102a757600080fd5b91908080601f016020809104026020016040519081016040528093929190818152602001838380828437600081840152601f19601f820116905080830192505050505050509192919290803590602001909291908035906020019064010000000081111561031457600080fd5b82018360208201111561032657600080fd5b8035906020019184600183028401116401000000008311171561034857600080fd5b91908080601f016020809104026020016040519081016040528093929190818152602001838380828437600081840152601f19601f820116905080830192505050505050509192919290803590602001906401000000008111156103ab57600080fd5b8201836020820111156103bd57600080fd5b803590602001918460018302840111640100000000831117156103df57600080fd5b91908080601f016020809104026020016040519081016040528093929190818152602001838380828437600081840152601f19601f8201169050808301925050505050505091929192908035906020019064010000000081111561044257600080fd5b82018360208201111561045457600080fd5b8035906020019184600183028401116401000000008311171561047657600080fd5b91908080601f016020809104026020016040519081016040528093929190818152602001838380828437600081840152601f19601f820116905080830192505050505050509192919290803590602001906401000000008111156104d957600080fd5b8201836020820111156104eb57600080fd5b8035906020019184600183028401116401000000008311171561050d57600080fd5b91908080601f016020809104026020016040519081016040528093929190818152602001838380828437600081840152601f19601f820116905080830192505050505050509192919290505050610edb565b005b34801561056d57600080fd5b5061059a6004803603602081101561058457600080fd5b8101908080359060200190929190505050611436565b604051808273ffffffffffffffffffffffffffffffffffffffff1673ffffffffffffffffffffffffffffffffffffffff16815260200191505060405180910390f35b3480156105e857600080fd5b5061062b600480360360208110156105ff57600080fd5b81019080803573ffffffffffffffffffffffffffffffffffffffff169060200190929190505050611469565b005b34801561063957600080fd5b506106426116e2565b6040518082815260200191505060405180910390f35b34801561066457600080fd5b506106a76004803603602081101561067b57600080fd5b81019080803573ffffffffffffffffffffffffffffffffffffffff1690602001909291905050506116ef565b6040518082815260200191505060405180910390f35b3480156106c957600080fd5b50610716600480360360408110156106e057600080fd5b81019080803573ffffffffffffffffffffffffffffffffffffffff1690602001909291908035906020019092919050505061177b565b6040518082815260200191505060405180910390f35b34801561073857600080fd5b506107656004803603602081101561074f57600080fd5b81019080803590602001909291905050506117ab565b604051808273ffffffffffffffffffffffffffffffffffffffff1673ffffffffffffffffffffffffffffffffffffffff16815260200191505060405180910390f35b3480156107b357600080fd5b506107bc6117f4565b6040518082815260200191505060405180910390f35b3480156107de57600080fd5b50610821600480360360208110156107f557600080fd5b81019080803573ffffffffffffffffffffffffffffffffffffffff169060200190929190505050611801565b005b34801561082f57600080fd5b506108726004803603602081101561084657600080fd5b81019080803573ffffffffffffffffffffffffffffffffffffffff1690602001909291905050506119d5565b6040518080602001828103825283818151815260200191508051906020019060200280838360005b838110156108b557808201518184015260208101905061089a565b505050509050019250505060405180910390f35b3480156108d557600080fd5b50610902600480360360208110156108ec57600080fd5b8101908080359060200190929190505050611a6c565b6040518089815260200180602001806020018881526020018060200180602001806020018060200187810387528e818151815260200191508051906020019080838360005b83811015610962578082015181840152602081019050610947565b50505050905090810190601f16801561098f5780820380516001836020036101000a031916815260200191505b5087810386528d818151815260200191508051906020019080838360005b838110156109c85780820151818401526020810190506109ad565b50505050905090810190601f1680156109f55780820380516001836020036101000a031916815260200191505b5087810385528b818151815260200191508051906020019080838360005b83811015610a2e578082015181840152602081019050610a13565b50505050905090810190601f168015610a5b5780820380516001836020036101000a031916815260200191505b5087810384528a818151815260200191508051906020019080838360005b83811015610a94578082015181840152602081019050610a79565b50505050905090810190601f168015610ac15780820380516001836020036101000a031916815260200191505b50878103835289818151815260200191508051906020019080838360005b83811015610afa578082015181840152602081019050610adf565b50505050905090810190601f168015610b275780820380516001836020036101000a031916815260200191505b50878103825288818151815260200191508051906020019080838360005b83811015610b60578082015181840152602081019050610b45565b50505050905090810190601f168015610b8d5780820380516001836020036101000a031916815260200191505b509e50505050505050505050505050505060405180910390f35b348015610bb357600080fd5b50610be060048036036020811015610bca57600080fd5b8101908080359060200190929190505050611ee3565b6040518089815260200180602001806020018881526020018060200180602001806020018060200187810387528e818151815260200191508051906020019080838360005b83811015610c40578082015181840152602081019050610c25565b50505050905090810190601f168015610c6d5780820380516001836020036101000a031916815260200191505b5087810386528d818151815260200191508051906020019080838360005b83811015610ca6578082015181840152602081019050610c8b565b50505050905090810190601f168015610cd35780820380516001836020036101000a031916815260200191505b5087810385528b818151815260200191508051906020019080838360005b83811015610d0c578082015181840152602081019050610cf1565b50505050905090810190601f168015610d395780820380516001836020036101000a031916815260200191505b5087810384528a818151815260200191508051906020019080838360005b83811015610d72578082015181840152602081019050610d57565b50505050905090810190601f168015610d9f5780820380516001836020036101000a031916815260200191505b50878103835289818151815260200191508051906020019080838360005b83811015610dd8578082015181840152602081019050610dbd565b50505050905090810190601f168015610e055780820380516001836020036101000a031916815260200191505b50878103825288818151815260200191508051906020019080838360005b83811015610e3e578082015181840152602081019050610e23565b50505050905090810190601f168015610e6b5780820380516001836020036101000a031916815260200191505b509e50505050505050505050505050505060405180910390f35b600581815481101515610e9457fe5b906000526020600020016000915090508060000160009054906101000a900473ffffffffffffffffffffffffffffffffffffffff16905081565b6000600380549050905090565b60011515610ef33360006122ca90919063ffffffff16565b1515141515610f90576040517f08c379a00000000000000000000000000000000000000000000000000000000081526004018080602001828103825260338152602001807f54686973206f7065726174696f6e2063616e206f6e6c792062652072756e206281526020017f792072656769737465726564207573657273200000000000000000000000000081525060400191505060405180910390fd5b610f986124ca565b6101006040519081016040528060038054905081526020018981526020018881526020018781526020018681526020018581526020018481526020018381525090507f9afd34344802906bbe9f13359065fab3c0b328482bb07e93456b7b79e63cc3e389600380549050898989898989604051808973ffffffffffffffffffffffffffffffffffffffff1673ffffffffffffffffffffffffffffffffffffffff168152602001888152602001806020018781526020018060200180602001806020018060200186810386528c818151815260200191508051906020019080838360005b8381101561109657808201518184015260208101905061107b565b50505050905090810190601f1680156110c35780820380516001836020036101000a031916815260200191505b5086810385528a818151815260200191508051906020019080838360005b838110156110fc5780820151818401526020810190506110e1565b50505050905090810190601f1680156111295780820380516001836020036101000a031916815260200191505b50868103845289818151815260200191508051906020019080838360005b83811015611162578082015181840152602081019050611147565b50505050905090810190601f16801561118f5780820380516001836020036101000a031916815260200191505b50868103835288818151815260200191508051906020019080838360005b838110156111c85780820151818401526020810190506111ad565b50505050905090810190601f1680156111f55780820380516001836020036101000a031916815260200191505b50868103825287818151815260200191508051906020019080838360005b8381101561122e578082015181840152602081019050611213565b50505050905090810190601f16801561125b5780820380516001836020036101000a031916815260200191505b509d505050505050505050505050505060405180910390a18860076000600380549050815260200190815260200160002060006101000a81548173ffffffffffffffffffffffffffffffffffffffff021916908373ffffffffffffffffffffffffffffffffffffffff160217905550600660008a73ffffffffffffffffffffffffffffffffffffffff1673ffffffffffffffffffffffffffffffffffffffff16815260200190815260200160002060038054905090806001815401808255809150509060018203906000526020600020016000909192909190915055506003819080600181540180825580915050906001820390600052602060002090600802016000909192909190915060008201518160000155602082015181600101908051906020019061138c929190612510565b5060408201518160020190805190602001906113a9929190612510565b506060820151816003015560808201518160040190805190602001906113d0929190612510565b5060a08201518160050190805190602001906113ed929190612510565b5060c082015181600601908051906020019061140a929190612510565b5060e0820151816007019080519060200190611427929190612510565b50505050505050505050505050565b60076020528060005260406000206000915054906101000a900473ffffffffffffffffffffffffffffffffffffffff1681565b600115156114813360016122ca90919063ffffffff16565b151514151561151e576040517f08c379a00000000000000000000000000000000000000000000000000000000081526004018080602001828103825260348152602001807f54686973206f7065726174696f6e2063616e206f6e6c792062652072756e206281526020017f7920726567697374657265642041646d696e732000000000000000000000000081525060400191505060405180910390fd5b6115328160016123ed90919063ffffffff16565b61153a612590565b6020604051908101604052808373ffffffffffffffffffffffffffffffffffffffff16815250905061156a6125ba565b6020604051908101604052808473ffffffffffffffffffffffffffffffffffffffff16815250905060058190806001815401808255809150509060018203906000526020600020016000909192909190915060008201518160000160006101000a81548173ffffffffffffffffffffffffffffffffffffffff021916908373ffffffffffffffffffffffffffffffffffffffff16021790555050505060048290806001815401808255809150509060018203906000526020600020016000909192909190915060008201518160000160006101000a81548173ffffffffffffffffffffffffffffffffffffffff021916908373ffffffffffffffffffffffffffffffffffffffff1602179055505050507f2dfcb7172ff1fe1434057bab7aa83982c0ee4d46528e6473f547d34da77cef5683604051808273ffffffffffffffffffffffffffffffffffffffff1673ffffffffffffffffffffffffffffffffffffffff16815260200191505060405180910390a1505050565b6000600480549050905090565b60006117058260016122ca90919063ffffffff16565b156117135760009050611776565b6117278260006122ca90919063ffffffff16565b156117355760019050611776565b6117498260006122ca90919063ffffffff16565b15801561176757506117658260016122ca90919063ffffffff16565b155b156117755760029050611776565b5b919050565b60066020528160005260406000208181548110151561179657fe5b90600052602060002001600091509150505481565b6004818154811015156117ba57fe5b906000526020600020016000915090508060000160009054906101000a900473ffffffffffffffffffffffffffffffffffffffff16905081565b6000600380549050905090565b600115156118193360016122ca90919063ffffffff16565b15151415156118b6576040517f08c379a00000000000000000000000000000000000000000000000000000000081526004018080602001828103825260348152602001807f54686973206f7065726174696f6e2063616e206f6e6c792062652072756e206281526020017f7920726567697374657265642041646d696e732000000000000000000000000081525060400191505060405180910390fd5b6118ca8160006123ed90919063ffffffff16565b6118d2612590565b6020604051908101604052808373ffffffffffffffffffffffffffffffffffffffff16815250905060048190806001815401808255809150509060018203906000526020600020016000909192909190915060008201518160000160006101000a81548173ffffffffffffffffffffffffffffffffffffffff021916908373ffffffffffffffffffffffffffffffffffffffff1602179055505050507f68c35433e049723f7f644a23a81777fe2f39303f07840a5832a62b4233e4884582604051808273ffffffffffffffffffffffffffffffffffffffff1673ffffffffffffffffffffffffffffffffffffffff16815260200191505060405180910390a15050565b6060600660008373ffffffffffffffffffffffffffffffffffffffff1673ffffffffffffffffffffffffffffffffffffffff168152602001908152602001600020805480602002602001604051908101604052809291908181526020018280548015611a6057602002820191906000526020600020905b815481526020019060010190808311611a4c575b50505050509050919050565b60006060806000606080606080611a816124ca565b60038a815481101515611a9057fe5b9060005260206000209060080201610100604051908101604052908160008201548152602001600182018054600181600116156101000203166002900480601f016020809104026020016040519081016040528092919081815260200182805460018160011615610100020316600290048015611b4e5780601f10611b2357610100808354040283529160200191611b4e565b820191906000526020600020905b815481529060010190602001808311611b3157829003601f168201915b50505050508152602001600282018054600181600116156101000203166002900480601f016020809104026020016040519081016040528092919081815260200182805460018160011615610100020316600290048015611bf05780601f10611bc557610100808354040283529160200191611bf0565b820191906000526020600020905b815481529060010190602001808311611bd357829003601f168201915b5050505050815260200160038201548152602001600482018054600181600116156101000203166002900480601f016020809104026020016040519081016040528092919081815260200182805460018160011615610100020316600290048015611c9c5780601f10611c7157610100808354040283529160200191611c9c565b820191906000526020600020905b815481529060010190602001808311611c7f57829003601f168201915b50505050508152602001600582018054600181600116156101000203166002900480601f016020809104026020016040519081016040528092919081815260200182805460018160011615610100020316600290048015611d3e5780601f10611d1357610100808354040283529160200191611d3e565b820191906000526020600020905b815481529060010190602001808311611d2157829003601f168201915b50505050508152602001600682018054600181600116156101000203166002900480601f016020809104026020016040519081016040528092919081815260200182805460018160011615610100020316600290048015611de05780601f10611db557610100808354040283529160200191611de0565b820191906000526020600020905b815481529060010190602001808311611dc357829003601f168201915b50505050508152602001600782018054600181600116156101000203166002900480601f016020809104026020016040519081016040528092919081815260200182805460018160011615610100020316600290048015611e825780601f10611e5757610100808354040283529160200191611e82565b820191906000526020600020905b815481529060010190602001808311611e6557829003601f168201915b5050505050815250509050806000015181602001518260400151836060015184608001518560a001518660c001518760e001518696508595508393508292508191508090509850985098509850985098509850985050919395975091939597565b600381815481101515611ef257fe5b9060005260206000209060080201600091509050806000015490806001018054600181600116156101000203166002900480601f016020809104026020016040519081016040528092919081815260200182805460018160011615610100020316600290048015611fa45780601f10611f7957610100808354040283529160200191611fa4565b820191906000526020600020905b815481529060010190602001808311611f8757829003601f168201915b505050505090806002018054600181600116156101000203166002900480601f0160208091040260200160405190810160405280929190818152602001828054600181600116156101000203166002900480156120425780601f1061201757610100808354040283529160200191612042565b820191906000526020600020905b81548152906001019060200180831161202557829003601f168201915b505050505090806003015490806004018054600181600116156101000203166002900480601f0160208091040260200160405190810160405280929190818152602001828054600181600116156101000203166002900480156120e65780601f106120bb576101008083540402835291602001916120e6565b820191906000526020600020905b8154815290600101906020018083116120c957829003601f168201915b505050505090806005018054600181600116156101000203166002900480601f0160208091040260200160405190810160405280929190818152602001828054600181600116156101000203166002900480156121845780601f1061215957610100808354040283529160200191612184565b820191906000526020600020905b81548152906001019060200180831161216757829003601f168201915b505050505090806006018054600181600116156101000203166002900480601f0160208091040260200160405190810160405280929190818152602001828054600181600116156101000203166002900480156122225780601f106121f757610100808354040283529160200191612222565b820191906000526020600020905b81548152906001019060200180831161220557829003601f168201915b505050505090806007018054600181600116156101000203166002900480601f0160208091040260200160405190810160405280929190818152602001828054600181600116156101000203166002900480156122c05780601f10612295576101008083540402835291602001916122c0565b820191906000526020600020905b8154815290600101906020018083116122a357829003601f168201915b5050505050905088565b60008073ffffffffffffffffffffffffffffffffffffffff168273ffffffffffffffffffffffffffffffffffffffff1614151515612396576040517f08c379a00000000000000000000000000000000000000000000000000000000081526004018080602001828103825260228152602001807f526f6c65733a206163636f756e7420697320746865207a65726f20616464726581526020017f737300000000000000000000000000000000000000000000000000000000000081525060400191505060405180910390fd5b8260000160008373ffffffffffffffffffffffffffffffffffffffff1673ffffffffffffffffffffffffffffffffffffffff16815260200190815260200160002060009054906101000a900460ff16905092915050565b6123f782826122ca565b15151561246c576040517f08c379a000000000000000000000000000000000000000000000000000000000815260040180806020018281038252601f8152602001807f526f6c65733a206163636f756e7420616c72656164792068617320726f6c650081525060200191505060405180910390fd5b60018260000160008373ffffffffffffffffffffffffffffffffffffffff1673ffffffffffffffffffffffffffffffffffffffff16815260200190815260200160002060006101000a81548160ff0219169083151502179055505050565b6101006040519081016040528060008152602001606081526020016060815260200160008152602001606081526020016060815260200160608152602001606081525090565b828054600181600116156101000203166002900490600052602060002090601f016020900481019282601f1061255157805160ff191683800117855561257f565b8280016001018555821561257f579182015b8281111561257e578251825591602001919060010190612563565b5b50905061258c91906125e4565b5090565b602060405190810160405280600073ffffffffffffffffffffffffffffffffffffffff1681525090565b602060405190810160405280600073ffffffffffffffffffffffffffffffffffffffff1681525090565b61260691905b808211156126025760008160009055506001016125ea565b5090565b9056fea165627a7a723058203fc02e38ce21ed68491397a80a8c14c1064eab2808c1cf364c5a91fa393ff0970029",
  "source": "pragma solidity ^0.5.0;\r\n\r\nimport \"./Roles.sol\";\r\n\r\n\r\ncontract Bazaar {\r\n\r\n    using Roles for Roles.Role;\r\n\r\n    Roles.Role  users;\r\n    Roles.Role  admins;\r\n\r\n    event AdminSuccess(\r\n        address added_address\r\n    );\r\n    event userSuccess(\r\n        address added_address\r\n    );\r\n    event createSuccess (\r\n        address _address,\r\n        uint id,\r\n        string nameOfProduct,\r\n        uint value,\r\n        string condition,\r\n        string sku,\r\n        string category,\r\n        string description\r\n    );\r\n\r\n    address owner = msg.sender;\r\n\r\n    constructor() public {\r\n        admins.add(owner);\r\n        Admin memory admin = Admin({\r\n            adminAddress : owner\r\n            });\r\n        allAdmins.push(admin);\r\n    }\r\n\r\n    modifier onlyUser() {\r\n        require(users.has(msg.sender) == true, 'This operation can only be run by registered users ');\r\n        _;\r\n    }\r\n\r\n    modifier onlyAdmin() {\r\n        require(admins.has(msg.sender) == true, 'This operation can only be run by registered Admins ');\r\n        _;\r\n    }\r\n\r\n    function addAdmin(address _newAdminAddress) public onlyAdmin {\r\n        admins.add(_newAdminAddress);\r\n        User memory user = User({\r\n            userAddress : _newAdminAddress\r\n            });\r\n        Admin memory admin = Admin({\r\n            adminAddress : _newAdminAddress\r\n            });\r\n        allAdmins.push(admin);\r\n        allUsers.push(user);\r\n\r\n        emit AdminSuccess(_newAdminAddress);\r\n    }\r\n\r\n    function checkAdressRole(address _theAddress) public view returns (uint){\r\n\r\n        if (admins.has(_theAddress)) {\r\n            return 0;\r\n        }\r\n\r\n        if (users.has(_theAddress)) {\r\n            return 1;\r\n        }\r\n\r\n        if (!users.has(_theAddress) && !admins.has(_theAddress)) {\r\n            return 2;\r\n        }\r\n    }\r\n\r\n    struct Item {\r\n        uint id;\r\n        string hash;\r\n        string nameOfProduct;\r\n        uint value;\r\n        string condition;\r\n        string sku;\r\n        string category;\r\n        string description;\r\n    }\r\n    //\r\n    struct User {\r\n        address userAddress;\r\n    }\r\n\r\n    struct Admin {\r\n        address adminAddress;\r\n    }\r\n    //\r\n    Item[] public allItems;\r\n\r\n    User[] public allUsers;\r\n\r\n    Admin[] public allAdmins;\r\n\r\n    mapping(address => uint[]) public userItemsIds;\r\n    mapping(uint => address) public itemIdToUser;\r\n\r\n    function createUser(address _newUserAddress) public onlyAdmin {\r\n        users.add(_newUserAddress);\r\n        User memory user = User({\r\n            userAddress : _newUserAddress\r\n            });\r\n        allUsers.push(user);\r\n        emit userSuccess(_newUserAddress);\r\n    }\r\n\r\n    function createItem(address _userAddress, string memory _hash, string memory _name, uint _value, string memory _condition, string memory _sku, string memory _category, string memory _description) public onlyUser {\r\n        Item memory item = Item({\r\n            id : allItems.length,\r\n            hash : _hash,\r\n            nameOfProduct : _name,\r\n            value : _value,\r\n            condition : _condition,\r\n            sku : _sku,\r\n            category : _category,\r\n            description : _description\r\n            });\r\n\r\n        emit createSuccess(_userAddress, allItems.length, _name, _value, _condition, _sku, _category, _description);\r\n        itemIdToUser[allItems.length] = _userAddress;\r\n        userItemsIds[_userAddress].push(allItems.length);\r\n        allItems.push(item);\r\n\r\n    }\r\n\r\n    function getUserLength() public view returns (uint) {\r\n        return allUsers.length;\r\n    }\r\n\r\n    function getItemsLength() view public returns (uint) {\r\n        return allItems.length;\r\n    }\r\n\r\n    function getAllItemsLength() view public returns (uint) {\r\n        return allItems.length;\r\n    }\r\n\r\n    function getUserItems(address _userAddress) public view returns (uint[] memory items){\r\n        return userItemsIds[_userAddress];\r\n    }\r\n\r\n    //This function returns all information about single item\r\n    function getItemInfo(uint _itemId) public view returns (uint id, string memory hash, string memory nameOfProduct, uint value, string memory condition, string memory sku, string memory category, string memory description) {\r\n        Item memory item = allItems[_itemId];\r\n        return (item.id, item.hash, item.nameOfProduct, item.value, item.condition, item.sku, item.category, item.description);\r\n    }\r\n\r\n}",
  "sourcePath": "D:/eth_dapps/vue-truffle/contracts/Bazaar.sol",
  "compiler": {
    "name": "solc",
    "version": "0.5.0+commit.1d4f565a.Emscripten.clang"
  },
  "schemaVersion": "3.0.5",
  "updatedAt": "2019-06-28T11:47:54.325Z",
  "devdoc": {
    "methods": {}
  },
  "userdoc": {
    "methods": {}
  }
}